:020000040000FA
:04000000FEEFFFF020
:020000040001F9
:10FD2000166A000194EFFEF0EBECFEF096EFFEF0A9
:10FD3000FEEFFFF0550E0001B46FAA0EB46FB48150
:10FD4000120061004CF401F5610050F402F561000D
:10FD500054F403F5120061004CF407F5610050F40F
:10FD600008F5610054F409F5120061004CF404F543
:10FD7000610050F405F5610054F406F512006100CD
:10FD80004CF40AF5610050F40BF5610054F40CF5E5
:10FD9000120061004CF410F5610050F411F561009F
:10FDA00054F412F5120061004CF40DF5610050F4AA
:10FDB0000EF5610054F40FF51200620E0001AD6FF4
:10FDC000000EAF6F000EB36F020EB16F000EB06F7A
:10FDD000000EAC6F1200FAECFEF0A3ECFFF0DDECCD
:10FDE000FEF00CECFFF032ECFFF066ECFFF09AEC6A
:10FDF000FEF01200000E0001606F000E616F000E39
:10FE0000636F000E646F000E656F000E666F000E6C
:10FE1000676F000E686F1200000E0001E86F690E38
:10FE2000F96F040EFA6F000EFB6F040EF16F6B0E8C
:10FE3000F06F400EFD6F000EF86F010EF76F000EB1
:10FE4000EF6F020EEE6F480EFF6F000EFE6FB09A5E
:10FE5000B098B09EB09CA09AA098A09EA09CC00E06
:10FE6000FC6F1200000E0201CB6F000ECD6F000E72
:10FE7000CF6FB00ED16F800ED26F000ED36F190E00
:10FE8000D46F000ED56F000ED66F000ED76F000E28
:10FE9000D86F000ED96F000E136E000E146E000E98
:10FEA000156EC9ECFEF0000E136E000E146E000EFF
:10FEB000156ED3ECFEF0000E136E000E146E000EE5
:10FEC000156EBFECFEF0000E166E1200000E606E96
:10FED000020E616E0B0E626EE70E636E030E646EB1
:10FEE000000E656E000E666E000E676E000E686E88
:10FEF000000E6A6E010E6B6E000E6C6E010E6D6E62
:10FF0000000E6E6EB29CB29E67906792A29EA29CFB
:10FF1000000E136E000E146E000E156EABECFEF0AC
:10FF2000000E136E000E146E000E156EB5ECFEF092
:10FF3000000E136E000E146E000E156EA1ECFEF096
:10FF4000800E696E1200000EC26E000EC16E000EB1
:10FF5000BE6E000EC36E000EBF6E000EC06E070EAA
:10FF6000CA6EF70ECB6EF70EC66EC768C868C96852
:10FF700004011869F30E106F0869070E206F2869D5
:10FF8000EF0E006F000E196F000E296F000E216F2B
:10FF9000000E096F000E016F000E116F000E0201BE
:10FFA000896F000E886F000E876F000E866F000E3F
:10FFB0000401226F000E2A6F000E026F000E0A6FFE
:10FFC000000E126F000E1A6F03690B6913691B692B
:10FFD000070E236F2B6904690C6914691C690F0EE5
:10FFE000246F2C69130E0201536F120E576F180EF7
:10FFF0002C6F260E046F040E766F120090EFFEF049
:020000040020DA
:10000000FF0FFF0FFF0FFF0FFF0FFF0FFF0FFF0F80
:10001000FF0FFF0FFF0FFF0FFF0FFF0FFF0FFF0F70
:020000040030CA
:0A000000ECFFF7FF9FFFFFFFFFFF7B
:00000001FF
